:020000040000FA
:100000008A0102288B013200603019083200433027
:1000100011080730120860301308733014082230BA
:10002000150807301608320003301F0822009630EA
:10003000910022000030920021001B308C0026002D
:1000400000308C00230003308C00240018308C001A
:1000500020008C01A001A1012116302041202D2873
:1000600020000C08A000211E3928201A08002112A7
:100070000800201E08002116211D5B282119622876
:1000800008002200111B4728111F4D2808002000DE
:1000900021180800211C532808002000211C0800FA
:1000A000211857280800200021145B280800200090
:1000B00021106228080020000C1521158C16A116AD
:1000C0006820080020000C1121118C12A1120800D8
:1000D00020000230A2007320A20322080038031976
:1000E00008006B28080020000830A3002F30A4006F
:1000F0000330A500A30B7D28A40B7F28A50B7A282D
:0601000081280000080048
:04010600003400348D
:020000040001F9
:02000E00EC1FE5
:020010001125B8
:02001200FF3FAE
:02001400FF3FAC
:00000001FF
